:100000003FC06AC158C057C056C055C054C053C045
:1000100052C051C050C04FC04EC04DC04CC04BC06C
:100020004AC049C048C0040309041A037700770096
:1000300077002E006F0062006400650076002E00DD
:1000400061007400180350006F00770065007200B3
:10005000530077006900740063006800120110010A
:10006000FF000008C016DC050001010200010902C2
:100070001200010100C00A09040000000000000095
:1000800011241FBECFE5D4E0DEBFCDBF10E0A0E657
:10009000B0E0EAEAF6E002C005900D92A236B107A0
:1000A000D9F710E0A2E6B0E001C01D92A839B1076F
:1000B000E1F746D2F8C2A4CF85B7826085BF8BB77F
:1000C00080648BBF08951F93CF93DF9390917E0040
:1000D000935097FD8DC020917B0080917A008D32E6
:1000E00009F084C0983009F081C0CCE0D0E0C21B98
:1000F000D109CE57DF4F83EC80936E008AE5809361
:100100006000109262009881892F807621F0CE01E4
:1001100058D2282F62C02A811092770089818823C3
:1001200049F49F7119F481E0809377001092780070
:1001300022E04DC0853019F420937F0047C08630FF
:10014000B1F58B81813019F48CE590E004C08230E8
:1001500041F48EE690E090937D0080937C0022E154
:1001600022C08330F9F48A81882341F486E290E04A
:1001700090937D0080937C0024E015C0813041F491
:100180008AE290E090937D0080937C002AE10BC08E
:10019000823041F484E490E090937D0080937C0071
:1001A00028E101C020E080E48093620016C088301E
:1001B00021F421E081E890E00CC0893019F420930B
:1001C000810004C08A3011F421E001C020E087E7FB
:1001D00090E090937D0080937C008F81882321F4B0
:1001E0008E81821708F4282F2093610010927E00E0
:1001F0008091600084FF49C0809161008F3F09F4C5
:1002000044C0182F893008F018E0811B80936100EA
:1002100080916E0098E8892780936E00112341F148
:1002200020917C0030917D008091620086FF0DC09E
:10023000AFE6B0E080E090E0F901E80FF91FE4914B
:10024000ED9301961817C1F708C0912FD901EFE679
:10025000F0E08D9181939150E1F71150812F90E062
:100260001F5F0196820F931F90937D0080937C0007
:100270008FE690E0612F2CD0612F6C5F6C3019F00D
:100280008FEF809361006093600094E186B3837088
:1002900031F49150D9F710927F0010927900DF91DC
:1002A000CF911F910895A82FB92F80E090E041E0F1
:1002B00050EA609530E009C02D9182279795879587
:1002C00010F084279527305EC8F36F5FA8F3089578
:1002D000EADF8D939D930895CF93CFB7CF93DF93AC
:1002E000C395B09BE9F7B09B0BC0B09B09C0B09B16
:1002F00007C0B09B05C0B09B03C0B09B01C089C0C4
:100300006F93C0917B00DD27CE57DF4F2F9365E5BC
:10031000B09B03C02F916F91E6CF0F931F934F9324
:1003200020E040E15F9306B3037000FB27F93F93A1
:1003300050E03BE039C0137040642F77012F5F5FBE
:100340001EC0406816B313702F7752501FC0406410
:1003500006B32F770370D1F15F5F00C023C0406206
:1003600016B32F77137091F15F5F00C025C0037043
:100370001027515012F45D5F0000115027952C3F5B
:1003800016B3C8F613700127015027952C3FC8F605
:100390004227499306B3037010274F7311502795D6
:1003A0002C3FA8F64695469516B3137079F00127B1
:1003B000015027952C3F98F66B5A60F3315006B3E5
:1003C000B0F600C010E41ABF002717C03B503195AB
:1003D000C31BD04010E41ABF0881033CF9F00B3472
:1003E000E9F0209179001981110F1213EDCF093630
:1003F00051F10D3211F0013E39F7009380003F9129
:100400005F914F911F910F912F916F91CAB7C6FDC8
:1004100067CFDF91CF91CFBFCF911895209180000A
:10042000222369F310917E00112339F534303AF11B
:1004300030937E0020937A0010917B003BE0311BCB
:1004400030937B001CC000917E000130B4F40AE5BB
:100450003091600034FD14C000936000CEE6D0E01F
:1004600013C0052710E000C0000008BB1AC0052714
:1004700010E0221F1DC010E021C04AE502C032ED8D
:10048000432FC4E1D0E032E017B31360C09A08B341
:1004900017BB53E020E865E320FF052708BB27953D
:1004A00017951C3FF0F66695B8F7B1F720FF0527C2
:1004B00008BB279517951C3FD0F62795179517FF72
:1004C000052700001C3F08BBB0F629913A9519F7A3
:1004D0000C7F10917F00110FC651D04008BB11F066
:1004E0001093790010E41ABF016017B31C7F402FEE
:1004F0004C7F54E05A95F1F708BB17BB48BB7FCF40
:1005000085E290E0BBD0382FE6E6F0E020E091E015
:1005100080818111292B319680E0EE36F80711F0A9
:10052000990FF6CF232788B3922F9C7F8370982B47
:1005300098BB82B3229520738F7C282B22BB089511
:100540001F932EE088E190E00FB6F894A89581BD46
:100550000FBE21BD8BEF81BB12BA18BA8CEF87BBDF
:10056000CFDFB89A20E040E45FE104C0A895CA015B
:100570000197F1F72150D1F7B89885E083BF9CDD52
:10058000789418E0A8959FDD08B600FEFBCF88B7E9
:10059000816088BF809163008150809363008F5F8A
:1005A00089F710936300E6E6F0E08081882311F07C
:1005B00081508083319680E0EE36F807B1F7A0DFF6
:1005C000E1CFCF93DF93EC0185E290E057D0482F45
:1005D00084E690E090937D0080937C003981332302
:1005E00039F48A81809364008B818093650014C004
:1005F0003130A1F440936400E6E6F0E020E091E0C1
:1006000080818111292B319680E0EE36F80711F0B8
:10061000990FF6CF2093650082E02DC0832F825082
:10062000823038F52C812770E22FF0E081E090E0F5
:10063000682F01C0660F2A95EAF7862F842332308F
:1006400031F4642B20E0882329F421E003C0609575
:100650006423282F8A81882339F4EA59FF4F1082B6
:1006600085E290E013D005C0222319F0EA59FF4F2C
:10067000808346DF80E0DF91CF910895E199FECF3E
:100680009FBB8EBBE09A99278DB30895262FE199E1
:10069000FECF9FBB8EBB2DBB0FB6F894E29AE19ABA
:0A06A0000FBE01960895F894FFCFF5
:0206AA005AFFF5
:00000001FF
