:100000000C9462000C948A000C948A000C948A0070
:100010000C948A000C948A000C948A000C94540668
:100020000C948A000C948A000C948A000C948A0028
:100030000C948A000C948A000C948A000C948A0018
:100040000C94B2050C948A000C9422060C94FC05C6
:100050000C948A000C948A000C948A000C948A00F8
:100060000C948A000C948A000000000023002600F3
:10007000290000000000240027002A0000000000E2
:10008000250028002B0004040404040404040202D4
:100090000202020203030303030301020408102007
:1000A0004080010204081020010204081020000012
:1000B0000008000201000003040700000000000027
:1000C0000000440711241FBECFEFD8E0DEBFCDBF34
:1000D00011E0A0E0B1E0E0E6F4E102C005900D928D
:1000E000A233B107D9F722E0A2E3B1E001C01D922B
:1000F000AF3CB207E1F710E0C2E6D0E004C02197C0
:10010000FE010E94F008C136D107C9F70E94C50759
:100110000C942E0A0C940000FC01538D448D252F65
:1001200030E0842F90E0821B930B541710F0CF9691
:10013000089501970895FC01918D828D981761F0C3
:10014000828DDF01A80FB11D5D968C91928D9F5F0E
:100150009F73928F90E008958FEF9FEF0895FC01B9
:10016000918D828D981731F0828DE80FF11D858D6C
:1001700090E008958FEF9FEF0895FC01918D228DFF
:10018000892F90E0805C9F4F821B91098F73992784
:100190000895FC01848DDF01A80FB11DA35ABF4F44
:1001A0002C91848D90E001968F739927848FA68976
:1001B000B7892C93A089B1898C9180648C93938D9D
:1001C000848D981306C00288F389E02D80818F7D8D
:1001D00080830895EF92FF920F931F93CF93DF9345
:1001E000EC0181E0888F9B8D8C8D981305C0E88988
:1001F000F989808185FD24C0F62E0B8D10E00F5FFC
:100200001F4F0F731127E02E8C8DE8120CC00FB614
:1002100007FCFACFE889F989808185FFF5CFCE0107
:100220000E94C900F1CF8B8DFE01E80FF11DE35A4A
:10023000FF4FF0820B8FEA89FB898081806207C0C3
:10024000EE89FF896083E889F989808180648083F1
:1002500081E090E0DF91CF911F910F91FF90EF909F
:100260000895CF93DF93EC01888D8823C9F0EA8944
:10027000FB89808185FD05C0A889B9898C9186FD9F
:100280000FC00FB607FCF5CF808185FFF2CFA8899C
:10029000B9898C9185FFEDCFCE010E94C900E7CFCF
:1002A000DF91CF9108958CE391E00E94BD0021E0A1
:1002B000892B09F420E0822F089580E090E0892BBB
:1002C00029F00E94530181110C940000089583309D
:1002D00081F028F4813099F08230A1F008958730C0
:1002E000A9F08830B9F08430D1F4809180008F7DFE
:1002F00003C0809180008F7780938000089584B53B
:100300008F7702C084B58F7D84BD08958091B00041
:100310008F7703C08091B0008F7D8093B0000895E7
:100320001F93CF93DF93282F30E0F901E255FF4F61
:100330008491F901E656FF4FD491F901EA57FF4F36
:10034000C491CC23C9F0162F81110E946701EC2FB4
:10035000F0E0EE0FFF1FE458FF4FA591B4918FB767
:10036000F894111105C09C91ED2FE095E92302C08E
:10037000EC91ED2BEC938FBFDF91CF911F910895FE
:10038000CF93DF9390E0FC01E656FF4F2491FC01F0
:10039000EA57FF4F8491882361F190E0880F991FFD
:1003A000FC01EE58FF4FC591D491FC01E458FF4F7A
:1003B000A591B491611109C09FB7F89488812095E7
:1003C00082238883EC912E230BC0623061F49FB7A7
:1003D000F8943881822F809583238883EC912E2B8B
:1003E0002C939FBF06C08FB7F894E8812E2B2883EB
:1003F0008FBFDF91CF910895CF93C1E0C0933B01B0
:100400001092700061E083E00E94C00160E083E030
:100410000E949001C093B00089E08093B10082ED0A
:100420008093B30086E48093B400CF9108953FB7E2
:10043000F8948091370190913801A0913901B091E1
:100440003A0126B5A89B05C02F3F19F00196A11DC2
:10045000B11D3FBFBA2FA92F982F8827820F911D5A
:10046000A11DB11DBC01CD0142E0660F771F881FA1
:10047000991F4A95D1F708958F929F92AF92BF929C
:10048000CF92DF92EF92FF926B017C010E941702E4
:100490004B015C01C114D104E104F104F1F00E94AC
:1004A0001702DC01CB0188199909AA09BB09883E0A
:1004B0009340A105B10570F321E0C21AD108E1080B
:1004C000F10888EE880E83E0981EA11CB11CC114AF
:1004D000D104E104F10419F7DDCFFF90EF90DF9034
:1004E000CF90BF90AF909F908F900895CF92DF9262
:1004F000EF92FF920F931F93CF93DF936C017A01DA
:100500008B01C0E0D0E0CE15DF0589F0D8016D91F8
:100510008D01D601ED91FC910190F081E02DC60195
:100520000995892B11F47E0102C02196ECCFC701F9
:10053000DF91CF911F910F91FF90EF90DF90CF90BF
:100540000895089580E090E008959C01892B39F189
:1005500021388EE33807C0F0C90168EE73E00E94CD
:10056000A5088230910538F0880F991F880F991FD0
:1005700005970197F1F7C90168EE73E00E94A5089D
:1005800080E090E00C943C022130310541F0C9013B
:10059000880F991F880F991F05970197F1F7089504
:1005A0000F931F93CF93DF93EC018B01E0EBF0E00F
:1005B00090819F7D9083CB010E94A5024881598143
:1005C0006A817B81400F511F611D711D48835983D2
:1005D0006A837B83DF91CF911F910F9108950F93D1
:1005E0001F93CF93DF93EC018B01E0EBF0E0908160
:1005F00090629083CB010E94A502488159816A8153
:100600007B81400F511F611D711D488359836A838F
:100610007B83DF91CF911F910F910895E9EDF1E078
:100620001782118684E08093B302089510927000BF
:100630000C940E0362E08091D9010E94C0011092D7
:10064000AB0281E08093B30210923B0108952091A8
:10065000E101211123C021E02093E0012091B302A8
:10066000243021F020913B012223C1F00E941A0383
:100670001092AF021092B0021092B1021092B20228
:10068000F89482E08093B0008093B10094E6909358
:10069000B3001092B2008093700078940895CF92C6
:1006A000DF92EF92FF92CF93DF93EB01BA01550FE8
:1006B000880B990B0E9427096B017C0120E030E038
:1006C00040E45FE30E948B090E94F608C617D70733
:1006D00070F020E030E040EA5FE3C701B6010E941D
:1006E0008B090E94F60821E06C177D0708F420E0D2
:1006F000822FDF91CF91FF90EF90DF90CF90089500
:10070000FC011282138214821582168210861782CF
:10071000118608952F923F924F925F926F927F922F
:100720008F929F92AF92BF92CF92DF92EF92FF9201
:100730000F931F93CF93DF9300D01F92CDB7DEB7F7
:100740007C01DC01ED91FC913697808191818E0DC9
:100750009F1DDC01ED91FC910190F081E02D099548
:100760002091AE02F70180819181263099F4E091C9
:10077000AC02F091AD022281338128533D40213DEE
:10078000384040F42481358128533D40213D384094
:1007900008F4CDC0FC01369780819181FC01EE0DFB
:1007A000FF1DFB83EA830190F081E02D0190F08131
:1007B000E02D8A819B8109953090AE028091AE0236
:1007C000843409F0E1C0AA81BB811A968C911A97F2
:1007D000A090AC02B090AD0281110BC0F501628116
:1007E000738140EA51E1CD010E944F03882309F44F
:1007F000CBC0D50114966D917C91159740EA51E1DB
:100800008A819B810E944F03482E882309F4BCC033
:1008100083E0EA81FB81838720E0712CC12CD12CFD
:1008200000E010E0212C512C3A94AA81BB811B9648
:100830006C90462D50E0631408F055C0440F551FCE
:10084000F501E40FF51F6081718144E352E08A8174
:100850009B8129830E944F032981882309F494C036
:1008600081E0860DAA81BB811B968C931B97450165
:10087000880E911C880E911CF401608171814CE9F5
:1008800056E0CD0129830E944F032981882351F02E
:10089000372DA601B801822D952D01E00E94B908DF
:1008A000216016C0D4016D917C9144E352E08A81AD
:1008B0009B8129830E944F032981882309F464C006
:1008C000372DA601B801822D952D01E00E94B908AF
:1008D000732E6A018B01282E592E63946394EA814A
:1008E000FB816386A2CFCA01019797FDCA01959546
:1008F00087958150EA81FB818187372DA60123836B
:100900007482C5825683B801822D952D00E20E9423
:10091000D40827833087D701ED91FC9136978081E9
:100920009181F701E80FF91F87E082832EC02681AD
:100930003781275A31402B31314008F02BCF2285A7
:100940003385275A31402B31314008F023CFFC0149
:1009500036970190F081E02DEE0DFF1D1186D70135
:10096000ED91FC9136970190F081E02DEE0DFF1D89
:100970008FEF9FEFDC0183839483A583B68387E0A9
:1009800082834424439401C0412C842D0F900F9006
:100990000F90DF91CF911F910F91FF90EF90DF901B
:1009A000CF90BF90AF909F908F907F906F905F900F
:1009B0004F903F902F900895CF92DF92EF92FF9249
:1009C0001F93CF93DF936B017C01E091C602F091FE
:1009D000C7023897C081D181CA53DD4F8FEFC81647
:1009E000D806E806F80609F051C00E94FC01E8812B
:1009F000F98136978081918160EA71E18C0F9D1FAA
:100A00000E94EF02E881F98136978081918160EA46
:100A100071E18C0F9D1F0E94D002E881F981369709
:100A20008081918164E372E08C0F9D1F0E94EF0230
:100A3000E881F98136978081918164E372E08C0FBF
:100A40009D1F0E94D002E881F981369780819181B3
:100A500064E372E08C0F9D1F0E94EF02E881F98130
:100A60003697808191816CE971E08C0F9D1F0E9407
:100A7000D00262E670E080E090E0DF91CF911F91BC
:100A8000FF90EF90DF90CF900C943C02E881F981C9
:100A9000369780819181C80FD91F188219821A82D6
:100AA0001B820E94FC0160EA71E1CE010E94EF020C
:100AB00060EA71E1CE010E94D00210E264E372E0CC
:100AC000CE01F7FE05C00E94EF026CE976E004C09B
:100AD0000E94EF0264E372E0CE010E94D002CC0CCF
:100AE000DD1CEE1CFF1C115049F764E372E0CE01DF
:100AF0000E94EF026CE976E0CE01DF91CF911F9169
:100B0000FF90EF90DF90CF900C94D0020E94200ACB
:100B1000CF93C1E0C093E10184E08093B302809160
:100B2000DA018823E9F08091E0018823C9F040913F
:100B3000AB0250E0440F551F63EE71E08091AC02B0
:100B40009091AD020E94250A8091AB028093AE0283
:100B50001092E001C093E2011092AB02C093B30285
:100B6000CF9108951F920F920FB60F9211242F93D9
:100B70003F938F939F93AF93BF9380913301909155
:100B80003401A0913501B09136013091320123E05A
:100B9000230F2D3720F40196A11DB11D05C026E8B5
:100BA000230F0296A11DB11D2093320180933301C2
:100BB00090933401A0933501B093360180913701B1
:100BC00090913801A0913901B0913A010196A11D8F
:100BD000B11D8093370190933801A0933901B093F0
:100BE0003A01BF91AF919F918F913F912F910F90BB
:100BF0000FBE0F901F9018951F920F920FB60F9275
:100C000011242F933F934F935F936F937F938F9311
:100C10009F93AF93BF93EF93FF938CE391E00E9478
:100C2000C900FF91EF91BF91AF919F918F917F91FB
:100C30006F915F914F913F912F910F900FBE0F9049
:100C40001F9018951F920F920FB60F9211242F9399
:100C50008F939F93EF93FF93E0914C01F0914D019F
:100C60008081E0915201F091530182FD12C0908188
:100C7000809155018F5F8F7320915601821751F03B
:100C8000E0915501F0E0E45CFE4F958F80935501B3
:100C900001C08081FF91EF919F918F912F910F90D3
:100CA0000FBE0F901F90189578941F920F920FB659
:100CB0000F9211242F933F934F935F936F937F93E2
:100CC0008F939F93AF93BF93CF93DF93EF93FF9354
:100CD0002091D90130E0F901E255FF4F8491F901EB
:100CE000E656FF4FD491F901EA57FF4FC491CC2348
:100CF000A1F081110E946701EC2FF0E0EE0FFF1FC1
:100D0000E859FF4FA591B491EC91ED2391E080E07B
:100D100009F490E0C92FD82F02C0C0E0D0E0809144
:100D2000AF029091B002A091B102B091B2020196CF
:100D3000A11DB11D8093AF029093B002A093B102A8
:100D4000B093B2028091AB02843618F084E00E9426
:100D500088058091B302823081F018F4813039F037
:100D600072C0833071F1843009F463C06CC0CD2B44
:100D700009F069C01092AB0226C0219709F063C048
:100D8000E091AB0281E08E0F8093AB02F0E08091A6
:100D9000AF029091B002A091B102B091B202EE0FF9
:100DA000FF1FED51FE4F918380831092AF0210928E
:100DB000B0021092B1021092B20283E08093B302AB
:100DC00042C0CD2BF9F4E091AB0281E08E0F80930D
:100DD000AB02F0E08091AF029091B002A091B1021D
:100DE000B091B202EE0FFF1FED51FE4F9183808351
:100DF0001092AF021092B0021092B1021092B202A1
:100E000082E0DCCF4091AF025091B0026091B1021C
:100E10007091B2028091DD019091DE01A0E0B0E01E
:100E200084179507A607B70770F485E00E94880528
:100E30000AC0CD2B41F41092AF021092B002109272
:100E4000B1021092B2028091DF01882351F08091AB
:100E5000AB0280FF02C061E001C060E08DE00E9453
:100E60009001FF91EF91DF91CF91BF91AF919F9151
:100E70008F917F916F915F914F913F912F910F9043
:100E80000FBE0F901F901895ECE3F1E013821282D1
:100E900088EE93E0A0E0B0E084839583A683B783D7
:100EA00084E091E09183808385EC90E0958784874E
:100EB00084EC90E09787868780EC90E0918B808B24
:100EC00081EC90E0938B828B82EC90E0958B848B0D
:100ED00086EC90E0978B868B118E128E138E148E7B
:100EE00061E083E00E94C00160E083E00E94900125
:100EF00082E391E09093C7028093C602E9EDF1E0AE
:100F0000178283EE91E09093AD028093AC02A8EB40
:100F1000B2E01C961C921C9714961C92149715967E
:100F20001D921D921D921C9218971A961C921E9249
:100F300019971B961C921B9780E291E011969C9347
:100F40008E9388E291E013969C938E93129782E0A1
:100F500080831782118288E79EE1938382838CE9E4
:100F600090E095838483A4EBB2E082E390E0139653
:100F70009C938E9312971086168284E08093B3021E
:100F800086E191E08D939C930895789484B5826076
:100F900084BD84B5816084BD85B5826085BD85B51D
:100FA000816085BD80916E00816080936E0010929B
:100FB0008100809181008260809381008091810016
:100FC00081608093810080918000816080938000A7
:100FD0008091B10084608093B1008091B000816005
:100FE0008093B00080917A00846080937A00809131
:100FF0007A00826080937A0080917A008160809389
:101000007A0080917A00806880937A001092C10003
:1010100084EB92E00E94270360ED77E080E090E0AF
:101020000E943C0212E38091E101882309F48AC006
:101030001092E1018091E201E091AC02F091AD02E9
:10104000882321F0BF011092E20106C08091AB021B
:101050008093AE0263EE71E020E08091AE0228172B
:1010600008F5822F90E0880F991FDF01A80FB91FA4
:10107000860F971FEC0188819981189FA001199F05
:10108000500D11248091B6029091B70220FF03C049
:10109000919581959109840F951F11969C938E933C
:1010A0002F5FDBCF1092E00188EB92E00E948A0371
:1010B000882309F443C08091BD029091BE02A091A3
:1010C000BF02B091C0028A35954AA443B443B1F53A
:1010D0006AE575EA84E394E30E94DC0468EE73E059
:1010E00080E090E00E943C026EEA71E584E394E3C4
:1010F0000E94DC0468EE73E080E090E00E943C0215
:101100006EEA71E584E394E30E94DC0468EE73E028
:1011100080E090E00E943C026EEA71E584E394E393
:101120000E94DC0468EE73E080E090E00E943C02E4
:101130006EEA71E584E394E30E94DC0484EB92E0C0
:101140000E9427030E945D016ECFAA1BBB1B51E1C9
:1011500007C0AA1FBB1FA617B70710F0A61BB70B27
:10116000881F991F5A95A9F780959095BC01CD01CC
:1011700008950F93083090F0982F872F762F652FC2
:10118000542F432F322F22270850F4CF220F331F22
:10119000441F551F661F771F881F991F0A95B2F7B6
:1011A0000F91089597FB10F8169400080F930830DC
:1011B00098F00850232F342F452F562F672F782F64
:1011C000892F902DF4CF05949795879577956795FE
:1011D00057954795379527950A95AAF70F91089542
:1011E000EE0FFF1F0590F491E02D09940E946A090B
:1011F00088F09F5798F0B92F9927B751B0F0E1F0D8
:10120000660F771F881F991F1AF0BA95C9F714C087
:10121000B13091F00E948409B1E008950C948409E2
:10122000672F782F8827B85F39F0B93FCCF38695C0
:1012300077956795B395D9F73EF49095809570951D
:1012400061957F4F8F4F9F4F0895E89409C097FB9A
:101250003EF490958095709561957F4F8F4F9F4F8D
:101260009923A9F0F92F96E9BB279395F6958795D1
:1012700077956795B795F111F8CFFAF4BB0F11F494
:1012800060FF1BC06F5F7F4F8F4F9F4F16C088233B
:1012900011F096E911C0772321F09EE8872F762F71
:1012A00005C0662371F096E8862F70E060E02AF0B2
:1012B0009A95660F771F881FDAF7880F969587959E
:1012C00097F9089557FD9058440F551F59F05F3F07
:1012D00071F04795880F97FB991F61F09F3F79F058
:1012E00087950895121613061406551FF2CF4695DA
:1012F000F1DF08C0161617061806991FF1CF86955C
:101300007105610508940895E894BB27662777273F
:10131000CB0197F908950E949E090C940F0A0E9430
:10132000010A38F00E94080A20F0952311F00C946D
:10133000F8090C94FE0911240C9485090E94620995
:1013400070F3959FC1F3950F50E0551F629FF00118
:10135000729FBB27F00DB11D639FAA27F00DB11D31
:10136000AA1F649F6627B00DA11D661F829F2227BA
:10137000B00DA11D621F739FB00DA11D621F839F41
:10138000A00D611D221F749F3327A00D611D231F17
:10139000849F600D211D822F762F6A2F11249F5765
:1013A00050409AF0F1F088234AF0EE0FFF1FBB1F68
:1013B000661F771F881F91505040A9F79E3F510527
:1013C00080F00C94F8090C9485095F3FE4F3983E93
:1013D000D4F3869577956795B795F795E7959F5FD1
:1013E000C1F7FE2B880F911D9695879597F9089563
:1013F00097F99F6780E870E060E008959FEF80ECC8
:10140000089500240A94161617061806090608956A
:1014100000240A9412161306140605060895092ED0
:101420000394000C11F4882352F0BB0F40F4BF2B3F
:1014300011F460FF04C06F5F7F4F8F4F9F4F08957F
:1014400081E090E0F8940C942E0AFB01DC0102C0CC
:1014500001900D9241505040D8F70895F894FFCF75
:1014600000000000EA0076028C003101BD009B0004
:10147000AF00000000002703160302000000000078
:101480008A030000FEFF000080030000020000004D
:0214900000005A
:00000001FF
